{
  "contractName": "Lottery",
  "abi": [
    {
      "inputs": [
        {
          "internalType": "uint256",
          "name": "_usdEntryFee",
          "type": "uint256"
        },
        {
          "internalType": "address",
          "name": "usdPriceFeed",
          "type": "address"
        },
        {
          "internalType": "address",
          "name": "_vrfCoordinator",
          "type": "address"
        },
        {
          "internalType": "address",
          "name": "_link",
          "type": "address"
        },
        {
          "internalType": "uint256",
          "name": "_fee",
          "type": "uint256"
        },
        {
          "internalType": "bytes32",
          "name": "_keyHash",
          "type": "bytes32"
        }
      ],
      "stateMutability": "nonpayable",
      "type": "constructor"
    },
    {
      "inputs": [],
      "name": "fee",
      "outputs": [
        {
          "internalType": "uint256",
          "name": "",
          "type": "uint256"
        }
      ],
      "stateMutability": "view",
      "type": "function"
    },
    {
      "inputs": [],
      "name": "keyHash",
      "outputs": [
        {
          "internalType": "bytes32",
          "name": "",
          "type": "bytes32"
        }
      ],
      "stateMutability": "view",
      "type": "function"
    },
    {
      "inputs": [],
      "name": "lottery_state",
      "outputs": [
        {
          "internalType": "enum Lottery.LOTTERY_STATE",
          "name": "",
          "type": "uint8"
        }
      ],
      "stateMutability": "view",
      "type": "function"
    },
    {
      "inputs": [
        {
          "internalType": "uint256",
          "name": "",
          "type": "uint256"
        }
      ],
      "name": "players",
      "outputs": [
        {
          "internalType": "address payable",
          "name": "",
          "type": "address"
        }
      ],
      "stateMutability": "view",
      "type": "function"
    },
    {
      "inputs": [],
      "name": "randomness",
      "outputs": [
        {
          "internalType": "uint256",
          "name": "",
          "type": "uint256"
        }
      ],
      "stateMutability": "view",
      "type": "function"
    },
    {
      "inputs": [
        {
          "internalType": "bytes32",
          "name": "requestId",
          "type": "bytes32"
        },
        {
          "internalType": "uint256",
          "name": "randomness",
          "type": "uint256"
        }
      ],
      "name": "rawFulfillRandomness",
      "outputs": [],
      "stateMutability": "nonpayable",
      "type": "function"
    },
    {
      "inputs": [],
      "name": "recentWinner",
      "outputs": [
        {
          "internalType": "address payable",
          "name": "",
          "type": "address"
        }
      ],
      "stateMutability": "view",
      "type": "function"
    },
    {
      "inputs": [],
      "name": "enter",
      "outputs": [],
      "stateMutability": "payable",
      "type": "function"
    },
    {
      "inputs": [],
      "name": "getEntranceFee",
      "outputs": [
        {
          "internalType": "uint256",
          "name": "",
          "type": "uint256"
        }
      ],
      "stateMutability": "view",
      "type": "function"
    },
    {
      "inputs": [],
      "name": "startLottery",
      "outputs": [],
      "stateMutability": "nonpayable",
      "type": "function"
    },
    {
      "inputs": [],
      "name": "endLottery",
      "outputs": [
        {
          "internalType": "bytes32",
          "name": "requestId",
          "type": "bytes32"
        }
      ],
      "stateMutability": "nonpayable",
      "type": "function"
    }
  ],
  "bytecode": "0x60c060405234801561001057600080fd5b506040516110b93803806110b9833981810160405260c081101561003357600080fd5b8101908080519060200190929190805190602001909291908051906020019092919080519060200190929190805190602001909291908051906020019092919050505083838173ffffffffffffffffffffffffffffffffffffffff1660a08173ffffffffffffffffffffffffffffffffffffffff1660601b815250508073ffffffffffffffffffffffffffffffffffffffff1660808173ffffffffffffffffffffffffffffffffffffffff1660601b81525050505033600360006101000a81548173ffffffffffffffffffffffffffffffffffffffff021916908373ffffffffffffffffffffffffffffffffffffffff1602179055508560028190555084600860016101000a81548173ffffffffffffffffffffffffffffffffffffffff021916908373ffffffffffffffffffffffffffffffffffffffff1602179055506001600860006101000a81548160ff0219169083600281111561019057fe5b0217905550816006819055508060058190555050505050505060805160601c60a05160601c610ee26101d7600039806105e4528061084652508061080a5250610ee26000f3fe60806040526004361061009c5760003560e01c806361728f391161006457806361728f391461019057806381447999146101bb57806394985ddd146101f4578063ddca3f4314610239578063e97dcb6214610264578063f71d96cb1461026e5761009c565b806309bc33a7146100a15780631593a8c7146100cc578063160344e2146100f7578063360131891461010e5780634f8c70cf14610139575b600080fd5b3480156100ad57600080fd5b506100b66102e9565b6040518082815260200191505060405180910390f35b3480156100d857600080fd5b506100e16103ec565b6040518082815260200191505060405180910390f35b34801561010357600080fd5b5061010c610482565b005b34801561011a57600080fd5b5061012361059d565b6040518082815260200191505060405180910390f35b34801561014557600080fd5b5061014e6105a3565b604051808273ffffffffffffffffffffffffffffffffffffffff1673ffffffffffffffffffffffffffffffffffffffff16815260200191505060405180910390f35b34801561019c57600080fd5b506101a56105c9565b6040518082815260200191505060405180910390f35b3480156101c757600080fd5b506101d06105cf565b604051808260028111156101e057fe5b60ff16815260200191505060405180910390f35b34801561020057600080fd5b506102376004803603604081101561021757600080fd5b8101908080359060200190929190803590602001909291905050506105e2565b005b34801561024557600080fd5b5061024e6106b1565b6040518082815260200191505060405180910390f35b61026c6106b7565b005b34801561027a57600080fd5b506102a76004803603602081101561029157600080fd5b81019080803590602001909291905050506107ca565b604051808273ffffffffffffffffffffffffffffffffffffffff1673ffffffffffffffffffffffffffffffffffffffff16815260200191505060405180910390f35b600080600860019054906101000a900473ffffffffffffffffffffffffffffffffffffffff1673ffffffffffffffffffffffffffffffffffffffff1663feaf968c6040518163ffffffff1660e01b815260040160a06040518083038186803b15801561035457600080fd5b505afa158015610368573d6000803e3d6000fd5b505050506040513d60a081101561037e57600080fd5b81019080805190602001909291908051906020019092919080519060200190929190805190602001909291908051906020019092919050505050505091505060006402540be40082029050600081670de0b6b3a764000060025402816103e057fe5b04905080935050505090565b6000600360009054906101000a900473ffffffffffffffffffffffffffffffffffffffff1673ffffffffffffffffffffffffffffffffffffffff163373ffffffffffffffffffffffffffffffffffffffff161461044857600080fd5b6002600860006101000a81548160ff0219169083600281111561046757fe5b021790555061047a600554600654610806565b905080905090565b600360009054906101000a900473ffffffffffffffffffffffffffffffffffffffff1673ffffffffffffffffffffffffffffffffffffffff163373ffffffffffffffffffffffffffffffffffffffff16146104dc57600080fd5b600160028111156104e957fe5b600860009054906101000a900460ff16600281111561050457fe5b14610577576040517f08c379a00000000000000000000000000000000000000000000000000000000081526004018080602001828103825260178152602001807f4c6f747465727920616c7265616479207374617274656400000000000000000081525060200191505060405180910390fd5b6000600860006101000a81548160ff0219169083600281111561059657fe5b0217905550565b60075481565b600460009054906101000a900473ffffffffffffffffffffffffffffffffffffffff1681565b60055481565b600860009054906101000a900460ff1681565b7f000000000000000000000000000000000000000000000000000000000000000073ffffffffffffffffffffffffffffffffffffffff163373ffffffffffffffffffffffffffffffffffffffff16146106a3576040517f08c379a000000000000000000000000000000000000000000000000000000000815260040180806020018281038252601f8152602001807f4f6e6c7920565246436f6f7264696e61746f722063616e2066756c66696c6c0081525060200191505060405180910390fd5b6106ad8282610a12565b5050565b60065481565b600060028111156106c457fe5b600860009054906101000a900460ff1660028111156106df57fe5b146106e957600080fd5b6106f16102e9565b3411610765576040517f08c379a000000000000000000000000000000000000000000000000000000000815260040180806020018281038252600e8152602001807f4e6f7420656e6f7567682045544800000000000000000000000000000000000081525060200191505060405180910390fd5b6001339080600181540180825580915050600190039060005260206000200160009091909190916101000a81548173ffffffffffffffffffffffffffffffffffffffff021916908373ffffffffffffffffffffffffffffffffffffffff160217905550565b600181815481106107d757fe5b906000526020600020016000915054906101000a900473ffffffffffffffffffffffffffffffffffffffff1681565b60007f000000000000000000000000000000000000000000000000000000000000000073ffffffffffffffffffffffffffffffffffffffff16634000aea07f00000000000000000000000000000000000000000000000000000000000000008486600060405160200180838152602001828152602001925050506040516020818303038152906040526040518463ffffffff1660e01b8152600401808473ffffffffffffffffffffffffffffffffffffffff1673ffffffffffffffffffffffffffffffffffffffff16815260200183815260200180602001828103825283818151815260200191508051906020019080838360005b838110156109165780820151818401526020810190506108fb565b50505050905090810190601f1680156109435780820380516001836020036101000a031916815260200191505b50945050505050602060405180830381600087803b15801561096457600080fd5b505af1158015610978573d6000803e3d6000fd5b505050506040513d602081101561098e57600080fd5b81019080805190602001909291905050505060006109c18460003060008089815260200190815260200160002054610ca4565b90506109e9600160008087815260200190815260200160002054610d1e90919063ffffffff16565b60008086815260200190815260200160002081905550610a098482610da6565b91505092915050565b600280811115610a1e57fe5b600860009054906101000a900460ff166002811115610a3957fe5b14610aac576040517f08c379a00000000000000000000000000000000000000000000000000000000081526004018080602001828103825260168152602001807f6e6f742063616c63756c6174696e672077696e6e65720000000000000000000081525060200191505060405180910390fd5b60008111610b22576040517f08c379a00000000000000000000000000000000000000000000000000000000081526004018080602001828103825260108152602001807f52616e646f6d206e6f7420666f756e640000000000000000000000000000000081525060200191505060405180910390fd5b60006001805490508281610b3257fe5b06905060018181548110610b4257fe5b9060005260206000200160009054906101000a900473ffffffffffffffffffffffffffffffffffffffff16600460006101000a81548173ffffffffffffffffffffffffffffffffffffffff021916908373ffffffffffffffffffffffffffffffffffffffff160217905550600460009054906101000a900473ffffffffffffffffffffffffffffffffffffffff1673ffffffffffffffffffffffffffffffffffffffff166108fc479081150290604051600060405180830381858888f19350505050158015610c15573d6000803e3d6000fd5b50600067ffffffffffffffff81118015610c2e57600080fd5b50604051908082528060200260200182016040528015610c5d5781602001602082028036833780820191505090505b5060019080519060200190610c73929190610ddf565b506001600860006101000a81548160ff02191690836002811115610c9357fe5b021790555081600781905550505050565b600084848484604051602001808581526020018481526020018373ffffffffffffffffffffffffffffffffffffffff1673ffffffffffffffffffffffffffffffffffffffff1681526020018281526020019450505050506040516020818303038152906040528051906020012060001c9050949350505050565b600080828401905083811015610d9c576040517f08c379a000000000000000000000000000000000000000000000000000000000815260040180806020018281038252601b8152602001807f536166654d6174683a206164646974696f6e206f766572666c6f77000000000081525060200191505060405180910390fd5b8091505092915050565b60008282604051602001808381526020018281526020019250505060405160208183030381529060405280519060200120905092915050565b828054828255906000526020600020908101928215610e58579160200282015b82811115610e575782518260006101000a81548173ffffffffffffffffffffffffffffffffffffffff021916908373ffffffffffffffffffffffffffffffffffffffff16021790555091602001919060010190610dff565b5b509050610e659190610e69565b5090565b610ea991905b80821115610ea557600081816101000a81549073ffffffffffffffffffffffffffffffffffffffff021916905550600101610e6f565b5090565b9056fea2646970667358221220f4aab09aa618add80b569f25eaa488acf2e82d9f0774f72c78ef320037eca93d64736f6c63430006060033",
  "immutableReferences": {
    "331": [
      {
        "length": 32,
        "start": 2058
      }
    ],
    "333": [
      {
        "length": 32,
        "start": 1508
      },
      {
        "length": 32,
        "start": 2118
      }
    ]
  },
  "source": "// SPDX-License-Identifier: MIT\n\npragma solidity ^0.6.6;\n\nimport \"@chainlink/contracts/src/v0.6/interfaces/AggregatorV3Interface.sol\";\nimport \"@chainlink/contracts/src/v0.6/VRFConsumerBase.sol\";\n\ncontract Lottery is VRFConsumerBase {\n    address payable[] public players;\n    uint256 usdEntryFee;\n    address owner;\n    address payable public recentWinner;\n    bytes32 public keyHash;\n    uint256 public fee;\n    uint256 public randomness;\n    enum LOTTERY_STATE {\n        OPEN,\n        CLOSED,\n        CALCULATING_WINNER\n    }\n    LOTTERY_STATE public lottery_state;\n    AggregatorV3Interface internal priceFeed;\n\n    modifier onlyOwner() {\n        require(msg.sender == owner);\n        _;\n    }\n\n    constructor(\n        uint256 _usdEntryFee,\n        address usdPriceFeed,\n        address _vrfCoordinator,\n        address _link,\n        uint256 _fee,\n        bytes32 _keyHash\n    ) public VRFConsumerBase(_vrfCoordinator, _link) {\n        owner = msg.sender;\n        usdEntryFee = _usdEntryFee;\n        priceFeed = AggregatorV3Interface(usdPriceFeed);\n        lottery_state = LOTTERY_STATE.CLOSED;\n        fee = _fee;\n        keyHash = _keyHash;\n    }\n\n    function enter() public payable {\n        // 50$ minimum\n        require(lottery_state == LOTTERY_STATE.OPEN);\n        require(msg.value > getEntranceFee(), \"Not enough ETH\");\n        players.push(msg.sender);\n    }\n\n    function getEntranceFee() public view returns (uint256) {\n        (, int256 price, , , ) = priceFeed.latestRoundData();\n        uint256 adjustedPrice = uint256(price) * 10**10; // 18 decimals\n        uint256 costToEnter = (usdEntryFee * 10**18) / adjustedPrice;\n        return costToEnter;\n    }\n\n    function startLottery() public onlyOwner {\n        require(\n            lottery_state == LOTTERY_STATE.CLOSED,\n            \"Lottery already started\"\n        );\n        lottery_state = LOTTERY_STATE.OPEN;\n    }\n\n    function endLottery() public onlyOwner returns (bytes32 requestId) {\n        lottery_state = LOTTERY_STATE.CALCULATING_WINNER;\n        return requestId = requestRandomness(keyHash, fee);\n    }\n\n    function fulfillRandomness(bytes32 _requestId, uint256 _randomness)\n        internal\n        override\n    {\n        require(\n            lottery_state == LOTTERY_STATE.CALCULATING_WINNER,\n            \"not calculating winner\"\n        );\n        require(_randomness > 0, \"Random not found\");\n        uint256 indexOfWinner = _randomness % players.length;\n        recentWinner = players[indexOfWinner];\n        recentWinner.transfer(address(this).balance);\n        // Reset\n        players = new address payable[](0);\n        lottery_state = LOTTERY_STATE.CLOSED;\n        randomness = _randomness;\n    }\n}\n",
  "sourcePath": "/Users/harrytrippel/Desktop/DEFI/lottery/contracts/Lottery.sol",
  "compiler": {
    "name": "solc",
    "version": "0.6.6+commit.6c089d02.Emscripten.clang"
  },
  "schemaVersion": "3.4.0",
  "updatedAt": "2021-09-11T18:36:07.292Z",
  "devdoc": {
    "methods": {}
  },
  "userdoc": {
    "methods": {}
  }
}